:100000000C9434000C9451000C9451000C94510049
:100010000C947B010C9451000C9451000C945100F1
:100020000C9451000C9451000C9451000C9451000C
:100030000C9451000C9451000C9451000C945100FC
:100040000C9451000C9451000C948F000C945100AE
:100050000C94AF000C9451000C9451000C9451007E
:100060000C9451000C94510011241FBECFEFD4E02A
:10007000DEBFCDBF11E0A0E0B1E0E4EEF3E002C0EE
:1000800005900D92A030B107D9F714E0A0E0B1E0DF
:1000900001C01D92AD3EB107E1F70E94D4010C945E
:1000A000F1010C940000CF93DF93CDB7DEB7ABE244
:1000B000B0E0EBE2F0E0808181608C93ABE2B0E0F5
:1000C000EBE2F0E0808182608C93AAE2B0E0EAE2A9
:1000D000F0E0808182608C93AAE2B0E0EAE2F0E096
:1000E00080818E7F8C93E4ECF0E088E08083E5EC07
:1000F000F0E01082E2ECF0E086E08083E1ECF0E0FA
:1001000088ED808310920401109201011092000189
:100110001092030110920201DF91CF9108951F9276
:100120000F920FB60F9211248F93AF93BF93EF935B
:10013000FF93CF93DF93CDB7DEB7ECE6F0E0A6EC0C
:10014000B0E08C918083DF91CF91FF91EF91BF91CF
:10015000AF918F910F900FBE0F901F9018951F9227
:100160000F920FB60F9211242F933F934F935F93EB
:100170006F937F938F939F93AF93BF93EF93FF936F
:10018000CF93DF93CDB7DEB72197DEBFCDBF2091F0
:100190000001309101018091020190910301A901B8
:1001A000481B590BCA0188519C4F28EE33E0B90116
:1001B0000E94DD01009719F4109204011EC0809185
:1001C000020190910301FC01EB5FFE4F8081898366
:1001D0008091020190910301019628EE33E0B9016C
:1001E0000E94DD01909303018093020181E08093DE
:1001F0000401E6ECF0E0898180832196F894DEBF6B
:10020000CDBFDF91CF91FF91EF91BF91AF919F91C2
:100210008F917F916F915F914F913F912F910F90AF
:100220000FBE0F901F901895CF93DF93CDB7DEB719
:10023000809104018130E1F3DF91CF910895CF9354
:10024000DF93CDB7DEB725970FB6F894DEBF0FBEAC
:10025000CDBF8D838D818C838091000190910101B0
:10026000019628EE33E0B9010E94DD019B838A8369
:1002700020910201309103018A819B8182179307AB
:1002800079F08091000190910101FC01EB5FFE4F3C
:100290008C8180838A819B819093010180930001EE
:1002A000809104018823F1F480910201909103016F
:1002B000FC01EB5FFE4F8081898380910201909168
:1002C0000301019628EE33E0B9010E94DD0190930D
:1002D00003018093020181E080930401E6ECF0E0E9
:1002E0008981808325960FB6F894DEBF0FBECDBFFF
:1002F000DF91CF9108951F920F920FB60F921124A4
:100300002F933F934F935F936F937F938F939F931D
:10031000AF93BF93EF93FF93CF93DF93CDB7DEB748
:10032000E6E2F0E080810E941F01DF91CF91FF9112
:10033000EF91BF91AF919F918F917F916F915F915D
:100340004F913F912F910F900FBE0F901F901895D6
:10035000CF93DF93CDB7DEB7A5E5B0E0E5E5F0E0FC
:1003600080818F7E8C93E0E6F0E0108278940E948A
:100370005300E8E2F0E01082E7E2F0E01082ECE601
:10038000F0E08FE38083A8E6B0E0E8E6F0E080816B
:1003900082608C93DF91CF910895CF93DF93CDB797
:1003A000DEB7DF91CF910895CF93DF93CDB7DEB75E
:1003B0000E94A8010E94CD01FDCFAA1BBB1B51E1E9
:1003C00007C0AA1FBB1FA617B70710F0A61BB70BC5
:1003D000881F991F5A95A9F780959095BC01CD016A
:0403E0000895FFCFAE
:00000001FF
