:100000000C942A000C9445000C9445000C94450077
:100010000C9445000C9445000C9445000C9445004C
:100020000C9445000C9445000C9445000C9445003C
:100030000C9445000C9445000C9445000C9445002C
:100040000C9445000C9445000C9445000C9445001C
:100050000C94450011241FBECFE5D8E0DEBFCDBF14
:1000600010E0A0E6B0E0E2E4F6E002C005900D92F8
:10007000A036B107D9F710E0A0E6B0E001C01D92AC
:10008000AE3AB107E1F70C9402020C9400001BB8E1
:100090004BB140BD30B539B928E12AB986EA80BDF7
:1000A00008955F9BFECF8CB1992708955D9BFECF8D
:1000B0008CB90895CF93DF93CDB7DEB728970FB6ED
:1000C000F894DEBF0FBECDBFBE016F5F7F4FDB0177
:1000D000E3E8F0E097E081918D93915097FFFBCF9B
:1000E00090918B00492F469546954695FB01E40F6C
:1000F000F11D892F99278770907041E050E09A0197
:1001000002C0220F331F8A95E2F79081922B9083D1
:1001100090918C00292F269526952695FB01E20FBC
:10012000F11D892F9927877090709A0102C0220FC4
:10013000331F8A95E2F73081322B308390918D0006
:10014000892F869586958695FB01E80FF11D892FED
:1001500099278770907002C0440F551F8A95E2F767
:10016000B081B42BB083A981AABB9A8197BB7B8154
:1001700074BB6C8161BB5D815BBB4E8148BB3F81C1
:1001800035BB288522BB28960FB6F894DEBF0FBE7C
:10019000CDBFDF91CF9108957F928F929F92AF92C2
:1001A000BF92CF92DF92EF92FF920F931F93CF9364
:1001B000082F70E080E1882E862264FFA5C0809120
:1001C0008D00F82EF694F694F694382F37708091BF
:1001D0008B00C82FC695C695C695282F2770162F59
:1001E0001F7011501F3F09F4C4C09090800041E07F
:1001F00050E06A0102C0CC0CDD1C2A95E2F7EC2C21
:10020000E0945A0102C0AA0CBB1C3A95E2F77A2C82
:10021000709460918200CC2309F05AC0BBB2BE201A
:10022000BBBA00FF4FC0FF2009F05AC08BB38A2928
:100230008BBB892D8150F0F78820B9F130E0AEE812
:10024000B0E0E0E6F0E040E050E007C03F5F4F5F25
:100250005F4F31961196303240F5CA018770907029
:10026000892B39F4832F86958695869509F04FC0A2
:1002700079B3B080B694872F992781709070969546
:10028000982F882797958795B82AB0827695B616C5
:10029000E9F68C918F3FD1F28F5F8C933F5F4F5F78
:1002A0005F4F319611963032C0F2CC23D1F5EBB3CB
:1002B000EC29EBBB892D8150F0F70695115008F021
:1002C000AACF57C0FF20B1F48BB387218BBBB1CF2E
:1002D000C13079F1C230C9F132B33E2132BBA1CF76
:1002E00051E0F516B1F192E0F916D9F182B38A29FD
:1002F00082BB9FCFA1E0FA1681F1B2E0FB16A9F113
:1003000082B3872182BB95CF80918C005ACF8130F8
:1003100021F0823021F070B3ACCF76B3AACF73B3A3
:10032000A8CFC13051F0C23061F0D2B2DC28D2BACD
:10033000C1CFD8B2DE20D8BA74CFF8B3FC29F8BB4D
:10034000B9CF45B34C2945BBB5CF25B32E2125BB2D
:1003500068CF88B38A2988BB6CCF88B3872188BBD4
:1003600068CF85B38A2985BB64CF85B3872185BBD8
:1003700060CFCF911F910F91FF90EF90DF90CF90C2
:10038000BF90AF909F908F907F900895CF93A0E6FD
:10039000B0E0EEE8F0E08FE111921D92815087FF0E
:1003A000FBCF68E08FE50E94CC00C0E08091810027
:1003B000181668F065E08FE10E94CC0080E0E82F1D
:1003C000FF27E257FF4FE0815D9BFECF15C068E13C
:1003D000809182000E94CC00CF5F20918100C217E3
:1003E00048F768E1809182000E94CC00CF5F2091A5
:1003F0008100C21760F3DECFECB98F5F8032F8F274
:10040000CF910895C7E5D8E0DEBFCDBF1BB8DBB004
:10041000D0BCC0B4C9B818E11AB986EA80BD6E0173
:100420000894C11CD11C91E0E92EF12C5F9BFECFFA
:100430008CB1992787FD5CC0803409F448C08823BB
:10044000C1F45F9BFECF8CB199278ABB5F9BFECF27
:100450008CB1992787BB5F9BFECF8CB1992784BB5A
:100460005F9BFECF8CB1992781BB5D9BFECF1CB8F3
:10047000DDCF813099F08230C9F689B35D9BFECF24
:100480008CB986B35D9BFECF8CB983B35D9BFECFE9
:100490008CB980B35D9BFECF8CB9C8CF5F9BFECF7C
:1004A0008CB199278BBB5F9BFECF8CB1992788BB02
:1004B0005F9BFECF8CB1992785BB5F9BFECF8CB134
:1004C000992782BB5D9BFECF81E08CB9AFCF90E0D6
:1004D000E92FFF27E058FF4F5F9BFECF7CB1708371
:1004E0009F5F9B30A8F35D9BFECF80E48CB99ECFCD
:1004F000982F9F77292F2695269520938B005F9B19
:10050000FECF3CB1492F4370440F440F440F932F4B
:10051000929596959770492B40938C003F7130933C
:100520008D00F601A3E8B0E097E05D915193915002
:1005300097FFFBCF622F669566956695F601E60FED
:10054000F11D822F992787709070970102C0220FAA
:10055000331F8A95E2F75081522B5083942F969542
:1005600096959695F601E90FF11D842F99278770CE
:100570009070970102C0220F331F8A95E2F73081F5
:10058000322B308390918D00192F16951695169564
:10059000F601E10FF11D892F99278770907097015F
:1005A00002C0220F331F8A95E2F78081822B80835D
:1005B000F981FABBEA81E7BBBB81B4BBAC81A1BBCB
:1005C0007D817BBB6E8168BB4F8145BB288522BB8B
:1005D000A0E6B0E0EEE8F0E08FE111921D928150CC
:1005E00087FFFBCF68E08FE50E94CC0010E02091F0
:1005F0008100121688F065E08FE10E94CC0080E057
:10060000E82FFF27E257FF4FE0815D9BFECFECB95B
:100610008F5F8032A8F30ACF68E1809182000E9448
:10062000CC001F5F40918100141728F768E180918A
:1006300082000E94CC001F5F40918100141760F37C
:02064000DACF0F
:00000001FF
